:100000000C942A000C949C080C94CF080C940209C0
:100010000C9447000C9447000C9447000C94470044
:100020000C9447000C9447000C9447000C94470034
:100030000C9447000C9447000C9447000C94470024
:100040000C9447000C9447000C9447000C94470014
:100050000C94470011241FBECFE5D8E0DEBFCDBF12
:1000600011E0A0E6B0E0E0EBFAE302C005900D92EB
:10007000AE3FB107D9F712E0AEEFB1E001C01D927B
:10008000AE32B107E1F70E94A2120C94561D0C94F7
:100090000000EF92FF920F931F937B018C0120E0F1
:1000A00030E040E05FE40E94F50388238CF0C80153
:1000B000B70120E030E040E05FE40E94C1010E940F
:1000C00055049B01AC01205030404040504806C0D0
:1000D000C801B7010E9455049B01AC01B901CA01D6
:1000E0001F910F91FF90EF900895A0E0B0E0EBE733
:1000F000F0E00C941F1DDC012B01FA019C91923061
:1001000008F439C1EB018881823008F433C194309E
:1001100069F4843009F02FC111969C91119789815F
:10012000981709F428C1AAEAB0E025C1843009F47F
:1001300021C18230A9F4923009F01DC19A01AD01AC
:1001400088E0EA010990AE01E90109929E0181501F
:10015000C1F7E201898111969C918923818308C1AD
:10016000923009F407C112962D903C901397EB0141
:100170008A819B811496AD90BD90CD90DC901797AD
:10018000EC80FD800E811F819101281B390BB90184
:1001900037FF04C066277727621B730B6032710537
:1001A0000CF061C0121613066CF537014801062EDB
:1001B00004C096948794779467940A94D2F721E0C8
:1001C00030E040E050E004C0220F331F441F551FB1
:1001D0006A95D2F721503040404050402E213F21B7
:1001E00040235123211531054105510521F021E01E
:1001F00030E040E050E079018A01E628F72808293C
:1002000019293CC0232BD1F1260E371E350146019A
:10021000062E04C096948794779467940A94D2F734
:1002200021E030E040E050E004C0220F331F441FC3
:10023000551F6A95D2F721503040404050402A2146
:100240003B214C215D21211531054105510521F04E
:1002500021E030E040E050E059016A01A628B728CB
:10026000C828D9280BC0821593052CF01C01AA249C
:10027000BB24650103C0EE24FF24870111969C91E5
:10028000D20111968C91981709F445C0992339F041
:10029000A80197012A193B094C095D0906C0A6016E
:1002A00095012E193F09400B510B57FD08C01182D3
:1002B0003382228224833583468357831DC081E0A5
:1002C00081833382228288279927DC01821B930B4A
:1002D000A40BB50B84839583A683B7830DC0220F2F
:1002E000331F441F551F24833583468357838281E0
:1002F000938101979383828324813581468157813D
:10030000DA01C9010197A109B1098F5F9F4FAF4F72
:10031000BF4328F30BC0918333822282EA0CFB1C7B
:100320000C1D1D1DE482F5820683178383E0808304
:10033000248135814681578157FF1AC0C901AA27F8
:1003400097FDA095BA2F81709070A070B0705695EF
:10035000479537952795822B932BA42BB52B848318
:100360009583A683B7838281938101969383828349
:10037000DF0101C0D201CD01CDB7DEB7E2E10C94BF
:100380003B1DA0E2B0E0E7ECF1E00C942B1D69838B
:100390007A838B839C832D833E834F835887E9E048
:1003A000EE2EF12CEC0EFD1ECE010196B7010E943F
:1003B00046068E010F5E1F4FCE010596B8010E94C2
:1003C00046068A8991E089278A8BC701B801AE0168
:1003D000475E5F4F0E9475000E947105A096E6E09F
:1003E0000C94471DA0E2B0E0E8EFF1E00C942B1D67
:1003F00069837A838B839C832D833E834F835887C5
:10040000F9E0EF2EF12CEC0EFD1ECE010196B701A6
:100410000E9446068E010F5E1F4FCE010596B80161
:100420000E944606C701B801AE01475E5F4F0E94B9
:1004300075000E947105A096E6E00C94471DA0E2AD
:10044000B0E0E5E2F2E00C941F1D69837A838B83B0
:100450009C832D833E834F835887CE010196BE0136
:10046000675F7F4F0E944606CE010596BE016F5E14
:100470007F4F0E9446069985923088F089898230A4
:10048000C8F0943019F4823051F404C0843029F457
:10049000923081F48AEA90E0C6C0923049F420E0BC
:1004A0009A858A89981321E02A87CE010996BBC0D4
:1004B000823049F420E09A858A89981321E02A8BBA
:1004C000CE014196B0C02D843E844F8458886D88FB
:1004D0007E888F88988CEE24FF248701AA24BB2471
:1004E000650140E050E060E070E0E0E0F0E0C10174
:1004F00081709070892BE9F0E60CF71C081D191D1E
:100500009A01AB012A0D3B1D4C1D5D1D80E090E062
:10051000A0E0B0E0E614F7040805190520F481E036
:1005200090E0A0E0B0E0BA01A901480F591F6A1F8E
:100530007B1FAA0CBB1CCC1CDD1C97FE08C081E0F5
:1005400090E0A0E0B0E0A82AB92ACA2ADB2A3196B6
:10055000E032F10549F0660C771C881C991C569412
:10056000479437942794C3CFFA85EA892B893C892D
:100570008B859C85280F391F2E5F3F4F17C0CA01FE
:1005800081709070892B61F016950795F794E79428
:1005900080E090E0A0E0B0E8E82AF92A0A2B1B2BC3
:1005A00076956795579547952F5F3F4F77FDE7CF36
:1005B0000CC0440F551F661F771F17FD4160EE0CDE
:1005C000FF1C001F111F21503040403090E05907A0
:1005D00090E0690790E4790760F32B8F3C8FDB0193
:1005E000CA018F779070A070B07080349105A1051A
:1005F000B10561F447FD0AC0E114F10401051105DC
:1006000029F0405C5F4F6F4F7F4F40781A8EFE1786
:1006100011F081E08A8F4D8F5E8F6F8F78A383E01A
:10062000898FCE0149960E947105A096E2E10C9453
:100630003B1DA8E1B0E0EFE1F3E00C94271D6983D6
:100640007A838B839C832D833E834F835887B9E0C5
:10065000EB2EF12CEC0EFD1ECE010196B7010E948F
:1006600046068E010F5E1F4FCE010596B8010E940F
:1006700046062985223008F47EC03989323010F4CC
:10068000B8017CC08A859A8989278A87243011F02D
:10069000223031F4231709F06EC06AEA70E06EC0B0
:1006A000343039F41D861E861F86188A1C861B86E8
:1006B00004C0323021F484E08987B7015FC02B8504
:1006C0003C858B899C89281B390B3C872B87ED84C3
:1006D000FE840F851889AD88BE88CF88D88CEA142F
:1006E000FB040C051D0540F4EE0CFF1C001F111F40
:1006F000215030403C872B8720E030E040E050E044
:1007000080E090E0A0E0B0E460E070E0EA14FB0478
:100710000C051D0540F0282B392B4A2B5B2BEA18C2
:10072000FB080C091D09B695A79597958795EE0CC2
:10073000FF1C001F111F6F5F7F4F6F31710531F775
:10074000DA01C9018F779070A070B0708034910584
:10075000A105B10561F427FD0AC0E114F10401050A
:10076000110529F0205C3F4F4F4F5F4F20782D87B8
:100770003E874F87588BBE01675F7F4FCB010E943A
:1007800071056896EAE00C94431DA8E1B0E0EBEC3B
:10079000F3E00C942B1D69837A838B839C832D83D8
:1007A0003E834F83588789E0E82EF12CEC0EFD1E26
:1007B000CE010196B7010E9446068E010F5E1F4FC3
:1007C000CE010596B8010E9446068985823040F028
:1007D0008989823028F0C701B8010E94BE0601C095
:1007E0008FEF6896E6E00C94471DA8E1B0E0EBEFD0
:1007F000F3E00C942B1D69837A838B839C832D8378
:100800003E834F83588789E0E82EF12CEC0EFD1EC5
:10081000CE010196B7010E9446068E010F5E1F4F62
:10082000CE010596B8010E9446068985823040F0C7
:100830008989823028F0C701B8010E94BE0601C034
:100840008FEF6896E6E00C94471DA8E1B0E0EBE27C
:10085000F4E00C942B1D69837A838B839C832D8316
:100860003E834F83588789E0E82EF12CEC0EFD1E65
:10087000CE010196B7010E9446068E010F5E1F4F02
:10088000CE010596B8010E9446068985823040F067
:100890008989823028F0C701B8010E94BE0601C0D4
:1008A00081E06896E6E00C94471DACE0B0E0EBE533
:1008B000F4E00C942F1D69837A838B839C83CE0193
:1008C0000196BE016B5F7F4F0E9446068D8182308C
:1008D00061F1823050F1843021F48E81882351F10E
:1008E0002EC02F81388537FD20C06E812F31310514
:1008F0001CF06623F9F023C08EE190E0821B930B7D
:1009000029853A854B855C8504C056954795379572
:1009100027958A95D2F76623B1F05095409530958A
:1009200021953F4F4F4F5F4F0EC020E030E040E039
:1009300050E009C02FEF3FEF4FEF5FE704C020E02A
:1009400030E040E050E8B901CA012C96E2E00C9496
:100950004B1DA8E0B0E0EFEAF4E00C94271D7B010A
:100960008C01611571058105910519F482E0898377
:1009700060C083E089838EE1C82ED12CDC82CB82DB
:10098000ED82FE820F831887C801B7010E942205FD
:10099000FC013197F7FF3BC0222733272E1B3F0B6B
:1009A00057016801022E04C0D694C794B794A79447
:1009B0000A94D2F740E050E060E070E081E090E01F
:1009C000A0E0B0E004C0880F991FAA1FBB1F2A95A2
:1009D000D2F70197A109B1098E219F21A023B1234C
:1009E0000097A105B10521F041E050E060E070E022
:1009F0004A295B296C297D294D835E836F83788723
:100A00008EE190E08E1B9F0B9C838B8312C03097EE
:100A100081F00E2E04C0EE0CFF1C001F111F0A9463
:100A2000D2F7ED82FE820F831887CE1ADF0ADC82AE
:100A3000CB821A82CE0101960E9471052896EAE0C7
:100A40000C94431DEF92FF920F931F937B018C0137
:100A500080E0E81680E0F80681E0080780E01807EB
:100A600088F48FEFE816F1040105110531F028F044
:100A700088E090E0A0E0B0E017C080E090E0A0E067
:100A8000B0E012C080E0E81680E0F80680E00807D9
:100A900081E0180728F088E190E0A0E0B0E004C011
:100AA00080E190E0A0E0B0E020E230E040E050E003
:100AB000281B390B4A0B5B0B04C016950795F7945E
:100AC000E7948A95D2F7F701EE54FF4F8081281BF7
:100AD000310941095109C9011F910F91FF90EF9010
:100AE0000895DF92EF92FF920F931F93FC01E48031
:100AF000F58006811781D1808081823048F480E0C2
:100B000090E0A0E1B0E0E82AF92A0A2B1B2BA5C04F
:100B1000843009F49FC0823021F4EE24FF24870141
:100B200005C0E114F1040105110519F4E0E0F0E05D
:100B300096C0628173819FEF623879070CF05BC0C9
:100B400022E83FEF261B370B2A3131052CF020E03D
:100B500030E040E050E02AC0B801A701022E04C0F6
:100B600076956795579547950A94D2F781E090E07E
:100B7000A0E0B0E004C0880F991FAA1FBB1F2A95F0
:100B8000D2F70197A109B1098E219F21A023B1239A
:100B90000097A105B10521F081E090E0A0E0B0E070
:100BA0009A01AB01282B392B4A2B5B2BDA01C901A7
:100BB0008F779070A070B07080349105A105B10559
:100BC00039F427FF09C0205C3F4F4F4F5F4F04C0EF
:100BD000215C3F4F4F4F5F4FE0E0F0E02030A0E05E
:100BE0003A07A0E04A07A0E45A0710F0E1E0F0E07D
:100BF00079018A0127C06038710564F5FB01E1586D
:100C0000FF4FD801C7018F779070A070B07080340B
:100C10009105A105B10539F4E7FE0DC080E490E02F
:100C2000A0E0B0E004C08FE390E0A0E0B0E0E80E08
:100C3000F91E0A1F1B1F17FF05C016950795F7948D
:100C4000E794319687E016950795F794E7948A958F
:100C5000D1F705C0EE24FF248701EFEFF0E06E2FFF
:100C6000679566276795902F9F77D794DD24D79453
:100C70008E2F8695492F462B582F5D29B701CA0123
:100C80001F910F91FF90EF90DF900895FC01DB0121
:100C9000408151812281622F6F7770E0221F2227CD
:100CA000221F9381892F880F822B282F30E0991FD4
:100CB0009927991F11969C93119721153105A9F534
:100CC000411551056105710511F482E037C082E8D4
:100CD0009FEF13969C938E9312979A01AB0167E056
:100CE000220F331F441F551F6A95D1F783E08C9361
:100CF0000DC0220F331F441F551F12968D919C91DA
:100D00001397019713969C938E931297203080E04F
:100D1000380780E0480780E4580758F314962D936D
:100D20003D934D935C93179708952F3F310579F4C8
:100D3000411551056105710519F484E08C930895FE
:100D400064FF03C081E08C9312C01C9210C02F5727
:100D5000304013963C932E93129783E08C9387E058
:100D6000440F551F661F771F8A95D1F7706414963C
:100D70004D935D936D937C93179708951F93DC01BA
:100D8000FB019C91923008F447C08081823008F4C6
:100D900043C0943051F411961C91843099F58181AF
:100DA000682F70E0611B71093FC0843021F09230E0
:100DB00031F48230B9F18181882389F12DC01196F7
:100DC0001C9111978230F1F081811817D9F4129695
:100DD0002D913C911397828193818217930794F010
:100DE00028173907BCF014968D919D910D90BC91F8
:100DF000A02D2481358146815781281739074A075C
:100E00005B0718F4112341F00AC082179307A40767
:100E1000B50740F4112319F061E070E005C06FEFF1
:100E20007FEF02C060E070E0CB011F910895DF9377
:100E3000CF93CDB7DEB72A970FB6F894DEBF0FBEBB
:100E4000CDBF89836A838981282F30E03A8729873B
:100E500089859A858130910509F46DC029853A8587
:100E60002230310509F4C9C089859A85009709F0B7
:100E7000EAC0ABE5B0E0EBE5F0E0808180648C9304
:100E80008A81282F30E038872F838F8198858130A1
:100E9000910521F12F813885223031052CF48F8185
:100EA0009885009761F0CFC02F81388522303105B9
:100EB00021F18F8198858330910571F1C4C0A5E53A
:100EC000B0E0E5E5F0E080818E7F8C93A5E5B0E0B1
:100ED000E5E5F0E080818D7F8C93B5C0A5E5B0E0BD
:100EE000E5E5F0E0808181608C93A5E5B0E0E5E583
:100EF000F0E080818D7F8C93A6C0A5E5B0E0E5E5AC
:100F0000F0E080818E7F8C93A5E5B0E0E5E5F0E030
:100F1000808182608C9397C0A5E5B0E0E5E5F0E0C4
:100F2000808181608C93A5E5B0E0E5E5F0E080810B
:100F300082608C9388C0ABE5B0E0EBE5F0E08081A7
:100F400080688C938A81282F30E03E832D838D81A9
:100F50009E818130910521F12D813E812230310524
:100F60002CF48D819E81009761F06DC02D813E81B2
:100F70002230310521F18D819E818330910571F1FF
:100F800062C0A5E5B0E0E5E5F0E080818B7F8C9361
:100F9000A5E5B0E0E5E5F0E08081877F8C9353C064
:100FA000A5E5B0E0E5E5F0E0808184608C93A5E5FF
:100FB000B0E0E5E5F0E08081877F8C9344C0A5E553
:100FC000B0E0E5E5F0E080818B7F8C93A5E5B0E0B3
:100FD000E5E5F0E0808188608C9335C0A5E5B0E060
:100FE000E5E5F0E0808184608C93A5E5B0E0E5E57F
:100FF000F0E0808188608C9326C0ABE5B0E0EBE543
:10100000F0E0808180628C938A81282F30E03C83DD
:101010002B838B819C818230910531F02B813C8127
:101020002330310549F00FC0A4E5B0E0E4E5F0E07D
:10103000808180648C9307C0A4E5B0E0E4E5F0E033
:1010400080818F7B8C932A960FB6F894DEBF0FBEFB
:10105000CDBFCF91DF910895DF93CF9300D00F9252
:10106000CDB7DEB789838981282F30E03B832A837F
:101070008A819B818130910589F02A813B812230D0
:101080003105A1F08A819B810097B9F4ABE5B0E00E
:10109000EBE5F0E080818F7B8C930FC0ABE5B0E097
:1010A000EBE5F0E080818F778C9307C0ABE5B0E093
:1010B000EBE5F0E080818F7D8C930F900F900F9087
:1010C000CF91DF910895DF93CF9300D000D00F929E
:1010D000CDB7DEB789837B836A838981282F30E08F
:1010E0003D832C838C819D818130910581F02C8101
:1010F0003D812230310591F08C819D810097A1F4D2
:101100008A819B819093FF018093FE010DC08A81AB
:101110009B81909301028093000206C08A819B818B
:1011200090930302809302020F900F900F900F9004
:101130000F90CF91DF9108951F920F920FB60F92EB
:1011400011242F933F934F935F936F937F938F93CC
:101150009F93AF93BF93EF93FF93DF93CF93CDB75D
:10116000DEB78091FE019091FF01009729F0E09198
:10117000FE01F091FF010995CF91DF91FF91EF9171
:10118000BF91AF919F918F917F916F915F914F919F
:101190003F912F910F900FBE0F901F9018951F92A7
:1011A0000F920FB60F9211242F933F934F935F939B
:1011B0006F937F938F939F93AF93BF93EF93FF931F
:1011C000DF93CF93CDB7DEB78091020290910302F7
:1011D000009729F0E0910202F09103020995CF9166
:1011E000DF91FF91EF91BF91AF919F918F917F918F
:1011F0006F915F914F913F912F910F900FBE0F9084
:101200001F9018951F920F920FB60F9211242F93D3
:101210003F934F935F936F937F938F939F93AF937E
:10122000BF93EF93FF93DF93CF93CDB7DEB780915A
:10123000020290910302009729F0E0910202F091DE
:1012400003020995CF91DF91FF91EF91BF91AF918B
:101250009F918F917F916F915F914F913F912F91CE
:101260000F900FBE0F901F901895DF93CF930F92A2
:10127000CDB7DEB71982198272C18981282F30E07B
:10128000C901880F991F820F931FFC01EE54FE4F76
:101290008081882309F04DC08981282F30E0C90161
:1012A000880F991F820F931FFC01EC54FE4F808121
:1012B0008130F9F4AAE3B0E0EAE3F0E08081482F5E
:1012C0008981282F30E0C901880F991F820F931F51
:1012D000FC01ED54FE4F8081282F30E081E090E04A
:1012E000022E02C0880F991F0A94E2F7842B8C9378
:1012F00033C1AAE3B0E0EAE3F0E08081482F8981BE
:10130000282F30E0C901880F991F820F931FFC011D
:10131000ED54FE4F8081282F30E081E090E0022ED6
:1013200002C0880F991F0A94E2F7809584238C935A
:1013300013C18981282F30E0C901880F991F820FBE
:10134000931FFC01EE54FE4F8081813009F04DC0A7
:101350008981282F30E0C901880F991F820F931FC0
:10136000FC01EC54FE4F80818130F9F4A7E3B0E03A
:10137000E7E3F0E08081482F8981282F30E0C90120
:10138000880F991F820F931FFC01ED54FE4F80813F
:10139000282F30E081E090E0022E02C0880F991FD4
:1013A0000A94E2F7842B8C93D7C0A7E3B0E0E7E37D
:1013B000F0E08081482F8981282F30E0C901880F13
:1013C000991F820F931FFC01ED54FE4F8081282F3F
:1013D00030E081E090E0022E02C0880F991F0A944D
:1013E000E2F7809584238C93B7C08981282F30E061
:1013F000C901880F991F820F931FFC01EE54FE4F05
:101400008081823009F04DC08981282F30E0C901E8
:10141000880F991F820F931FFC01EC54FE4F8081AF
:101420008130F9F4A4E3B0E0E4E3F0E08081482FF8
:101430008981282F30E0C901880F991F820F931FDF
:10144000FC01ED54FE4F8081282F30E081E090E0D8
:10145000022E02C0880F991F0A94E2F7842B8C9306
:101460007BC0A4E3B0E0E4E3F0E08081482F898111
:10147000282F30E0C901880F991F820F931FFC01AC
:10148000ED54FE4F8081282F30E081E090E0022E65
:1014900002C0880F991F0A94E2F7809584238C93E9
:1014A0005BC08981282F30E0C901880F991F820F06
:1014B000931FFC01EE54FE4F8081833009F04CC035
:1014C0008981282F30E0C901880F991F820F931F4F
:1014D000FC01EC54FE4F80818130F9F4A1E3B0E0CF
:1014E000E1E3F0E08081482F8981282F30E0C901B5
:1014F000880F991F820F931FFC01ED54FE4F8081CE
:10150000282F30E081E090E0022E02C0880F991F62
:101510000A94E2F7842B8C931FC0A1E3B0E0E1E3CF
:10152000F0E08081482F8981282F30E0C901880FA1
:10153000991F820F931FFC01ED54FE4F8081282FCD
:1015400030E081E090E0022E02C0880F991F0A94DB
:10155000E2F7809584238C9389818F5F89838981C9
:10156000833108F48ACE0F90CF91DF910895DF93F5
:10157000CF9300D000D0CDB7DEB78B836C838B8147
:101580008695869586958A838B81877089838A81E3
:10159000882381F58C818130A1F4ABE3B0E0EBE3EB
:1015A000F0E08081482F8981282F30E081E090E0B1
:1015B000022E02C0880F991F0A94E2F7842B8C93A5
:1015C000B0C08C81882309F0ACC0ABE3B0E0EBE3A2
:1015D000F0E08081482F8981282F30E081E090E081
:1015E000022E02C0880F991F0A94E2F78095842387
:1015F0008C9397C08A81813081F58C818130A1F4F0
:10160000A8E3B0E0E8E3F0E08081482F8981282F4B
:1016100030E081E090E0022E02C0880F991F0A940A
:10162000E2F7842B8C937DC08C81882309F079C0EC
:10163000A8E3B0E0E8E3F0E08081482F8981282F1B
:1016400030E081E090E0022E02C0880F991F0A94DA
:10165000E2F7809584238C9364C08A81823081F57F
:101660008C818130A1F4A5E3B0E0E5E3F0E0808176
:10167000482F8981282F30E081E090E0022E02C0BF
:10168000880F991F0A94E2F7842B8C934AC08C81AF
:10169000882309F046C0A5E3B0E0E5E3F0E08081EF
:1016A000482F8981282F30E081E090E0022E02C08F
:1016B000880F991F0A94E2F7809584238C9331C098
:1016C0008A81833071F58C818130A1F4A2E3B0E08E
:1016D000E2E3F0E08081482F8981282F30E081E02B
:1016E00090E0022E02C0880F991F0A94E2F7842B23
:1016F0008C9317C08C818823A1F4A2E3B0E0E2E3CD
:10170000F0E08081482F8981282F30E081E090E04F
:10171000022E02C0880F991F0A94E2F78095842355
:101720008C930F900F900F900F90CF91DF910895B1
:10173000DF93CF9300D000D0CDB7DEB78C831B8270
:101740008C818695869586958A838C81877089831E
:101750008A81882391F4E9E3F0E08081282F30E04A
:101760008981882F90E0A90102C0559547958A95F7
:10177000E2F7CA0181708B833EC08A81813091F487
:10178000E6E3F0E08081282F30E08981882F90E027
:10179000A90102C0559547958A95E2F7CA01817063
:1017A0008B8329C08A81823091F4E3E3F0E0808169
:1017B000282F30E08981882F90E0A90102C055953B
:1017C00047958A95E2F7CA0181708B8314C08A819C
:1017D000833089F4E0E3F0E08081282F30E08981D4
:1017E000882F90E0A90102C0559547958A95E2F7A8
:1017F000CA0181708B838B810F900F900F900F9097
:10180000CF91DF910895DF93CF930F92CDB7DEB7DD
:1018100089838981982F917080E1692F0E94B70A8E
:1018200089818695982F917081E1692F0E94B70A6E
:10183000898186958695982F917082E1692F0E9403
:10184000B70A8981869586958695982F917083E150
:10185000692F0E94B70A0F90CF91DF910895DF930F
:10186000CF93CDB7DEB7A1970FB6F894DEBF0FBE0A
:10187000CDBF8F8F79A368A38F8D813009F086C08B
:101880001E8E7FC08E8D0E94030C88A199A1CC0171
:10189000A0E0B0E0BC01CD010E94A904DC01CB01B5
:1018A000898F9A8FAB8FBC8F698D7A8D8B8D9C8D34
:1018B00020E030E04AEF54E40E941F02DC01CB013B
:1018C0008D8B9E8BAF8BB88F6D897E898F89988D1C
:1018D00020E030E040E85FE30E94250488232CF4F8
:1018E00081E090E09C8B8B8B3FC06D897E898F89D6
:1018F000988D20E03FEF4FE757E40E94C50318168C
:101900004CF5698D7A8D8B8D9C8D20E030E040E226
:1019100051E40E941F02DC01CB01BC01CD010E94F9
:101920004900DC01CB019C8B8B8B0FC088EC90E0D5
:101930009A8B898B89899A890197F1F79A8B898B80
:101940008B899C8901979C8B8B8B8B899C890097B9
:1019500069F714C06D897E898F89988D0E9449002E
:10196000DC01CB019C8B8B8B8B899C89988B8F871F
:101970008F8598890197F1F7988B8F878E8D8F5F70
:101980008E8F8E8D8A3008F47DCF86C08F8D882310
:1019900009F082C089E08D8F8D8D0E94030C88A193
:1019A00099A1CC01A0E0B0E0BC01CD010E94A90446
:1019B000DC01CB018B879C87AD87BE876B857C85DF
:1019C0008D859E8520E030E04AEF54E40E941F029E
:1019D000DC01CB018F839887A987BA876F817885CF
:1019E00089859A8520E030E040E85FE30E94250485
:1019F00088232CF481E090E09E838D833FC06F812B
:101A0000788589859A8520E03FEF4FE757E40E946B
:101A1000C50318164CF56B857C858D859E8520E069
:101A200030E040E251E40E941F02DC01CB01BC0126
:101A3000CD010E944900DC01CB019E838D830FC044
:101A400088EC90E09C838B838B819C810197F1F7DC
:101A50009C838B838D819E8101979E838D838D8155
:101A60009E81009769F714C06F81788589859A8572
:101A70000E944900DC01CB019E838D838D819E8174
:101A80009A83898389819A810197F1F79A8389835F
:101A90008D8D81508D8F80CFA1960FB6F894DEBFCB
:101AA0000FBECDBFCF91DF910895DF93CF93CDB718
:101AB000DEB72E970FB6F894DEBF0FBECDBF80E025
:101AC00090E0A0EAB1E48B879C87AD87BE876B85E9
:101AD0007C858D859E8520E030E04AEF54E40E94AD
:101AE0001F02DC01CB018F839887A987BA876F819A
:101AF000788589859A8520E030E040E85FE30E94A0
:101B0000250488232CF481E090E09E838D833FC0E0
:101B10006F81788589859A8520E03FEF4FE757E40C
:101B20000E94C50318164CF56B857C858D859E85B6
:101B300020E030E040E251E40E941F02DC01CB01D2
:101B4000BC01CD010E944900DC01CB019E838D8345
:101B50000FC088EC90E09C838B838B819C810197E4
:101B6000F1F79C838B838D819E8101979E838D836A
:101B70008D819E81009769F714C06F817885898572
:101B80009A850E944900DC01CB019E838D838D8163
:101B90009E819A83898389819A810197F1F79A833B
:101BA000898383E30E94EF0D82E30E94EF0D88E2B8
:101BB0000E94EF0D8EE00E94EF0D86E00E94EF0D77
:101BC00080E80E94EF0D81E00E94EF0D2E960FB687
:101BD000F894DEBF0FBECDBFCF91DF910895DF93A4
:101BE000CF930F92CDB7DEB7898388E060E00E9483
:101BF000B70A89E060E00E94B70A898188232CF443
:101C000087E061E00E94B70A04C087E060E00E94BC
:101C1000B70A89818295869586958370882F90E092
:101C200081709070882329F086E061E00E94B70AF5
:101C300004C086E060E00E94B70A8981829586959B
:101C40008770882F90E081709070882329F085E05C
:101C500061E00E94B70A04C085E060E00E94B70A14
:101C6000898182958F70882F90E081709070882391
:101C700029F084E061E00E94B70A04C084E060E0DB
:101C80000E94B70A0E9415108981869586958695CF
:101C9000882F90E081709070882329F087E061E0C0
:101CA0000E94B70A04C087E060E00E94B70A8981F9
:101CB00086958695882F90E081709070882329F012
:101CC00086E061E00E94B70A04C086E060E00E94FE
:101CD000B70A89818695882F90E08170907088235B
:101CE00029F085E061E00E94B70A04C085E060E069
:101CF0000E94B70A8981882F90E0817090708823B4
:101D000029F084E061E00E94B70A04C084E060E04A
:101D10000E94B70A0E9415100F90CF91DF9108958D
:101D2000DF93CF930F92CDB7DEB7898388E061E070
:101D30000E94B70A89E060E00E94B70A898188237F
:101D40002CF487E061E00E94B70A04C087E060E0FD
:101D50000E94B70A89818295869586958370882F1F
:101D600090E081709070882329F086E061E00E9405
:101D7000B70A04C086E060E00E94B70A89818295B4
:101D800086958770882F90E081709070882329F065
:101D900085E061E00E94B70A04C085E060E00E942F
:101DA000B70A898182958F70882F90E0817090703A
:101DB000882329F084E061E00E94B70A04C084E02F
:101DC00060E00E94B70A0E94151089818695869569
:101DD0008695882F90E081709070882329F087E0A5
:101DE00061E00E94B70A04C087E060E00E94B70A81
:101DF000898186958695882F90E0817090708823E0
:101E000029F086E061E00E94B70A04C086E060E045
:101E10000E94B70A89818695882F90E08170907022
:101E2000882329F085E061E00E94B70A04C085E0BC
:101E300060E00E94B70A8981882F90E081709070DD
:101E4000882329F084E061E00E94B70A04C084E09E
:101E500060E00E94B70A0E9415100F90CF91DF91A9
:101E60000895DF93CF9300D00F92CDB7DEB789836B
:101E70006A834B838A816B810E94AC1189810E94A5
:101E8000900E0F900F900F90CF91DF910895DF93F8
:101E9000CF9300D0CDB7DEB79A8389830BC0E98199
:101EA000FA81208189819A8101969A838983822F80
:101EB0000E94900EE981FA818081882381F70F903A
:101EC0000F90CF91DF910895DF93CF9300D000D092
:101ED000CDB7DEB79A8389836B834C838B816C810A
:101EE0000E94AC1189819A810E94470F0F900F9038
:101EF0000F900F90CF91DF9108950F931F93DF9371
:101F0000CF93CDB7DEB760970FB6F894DEBF0FBEA4
:101F1000CDBF6D877E878F87988B1A8219828D85BA
:101F20009E85AF85B8890097A105B10591F580E33D
:101F30000E94900E4DC08A81082F10E08D859E85ED
:101F4000AF85B8892AE030E040E050E0BC01CD0127
:101F50000E94FD1CDC01CB01282F205DCE010396E1
:101F6000FC01E00FF11F20838D859E85AF85B88928
:101F70002AE030E040E050E0BC01CD010E94FD1CB1
:101F8000DA01C9018D879E87AF87B88B8A818F5F01
:101F90008A838D859E85AF85B8890097A105B10597
:101FA00051F68A81898311C08981882F90E09C0134
:101FB00021503040CE010396FC01E20FF31F8081D7
:101FC0000E94900E8981815089838981882361F7DD
:101FD00060960FB6F894DEBF0FBECDBFCF91DF91F4
:101FE0001F910F910895DF93CF9300D000D000D0C0
:101FF000CDB7DEB769837A838B839C834D832E8331
:102000008D816E810E94AC1189819A81AB81BC81E6
:10201000BC01CD010E947D0F26960FB6F894DEBF5D
:102020000FBECDBFCF91DF910895DF93CF93CDB792
:10203000DEB7E0970FB6F894DEBF0FBECDBF8AE0E3
:1020400061E00E94B70A80E090E0A0E2B1E48DA7D1
:102050009EA7AFA7B8AB6DA57EA58FA598A92BEAC3
:102060003AEA4AE250E40E941F02DC01CB0189A750
:102070009AA7ABA7BCA769A57AA58BA59CA520E0CC
:1020800030E040E85FE30E94250488231CF481E0EF
:1020900088A791C069A57AA58BA59CA520E030E012
:1020A0004FE753E40E94C50318160CF07BC06DA5E2
:1020B0007EA58FA598A920E030E04AE754E40E946D
:1020C0001903DC01CB018CA39DA3AEA3BFA36CA11C
:1020D0007DA18EA19FA120E030E04AEF54E40E9450
:1020E0001F02DC01CB0188A399A3AAA3BBA368A10B
:1020F00079A18AA19BA120E030E040E85FE30E9443
:10210000250488232CF481E090E09F8F8E8F3FC0C0
:1021100068A179A18AA19BA120E03FEF4FE757E496
:102120000E94C50318164CF56CA17DA18EA19FA13C
:1021300020E030E040E251E40E941F02DC01CB01CC
:10214000BC01CD010E944900DC01CB019F8F8E8F25
:102150000FC088EC90E09D8F8C8F8C8D9D8D0197AA
:10216000F1F79D8F8C8F8E8D9F8D01979F8F8E8F16
:102170008E8D9F8D009769F724C068A179A18AA1EF
:102180009BA10E944900DC01CB019F8F8E8F8E8D19
:102190009F8D9B8F8A8F8A8D9B8D0197F1F79B8FE7
:1021A0008A8F0FC069A57AA58BA59CA50E944900BE
:1021B000DC01CB0188A788A5898F898D8A95F1F7E5
:1021C000898F8AE060E00E94B70A80E090E0AAEF81
:1021D000B4E48D8B9E8BAF8BB88F6D897E898F8990
:1021E000988D2BEA3AEA4AE250E40E941F02DC0191
:1021F000CB01898B9A8BAB8BBC8B69897A898B8954
:102200009C8920E030E040E85FE30E9425048823B9
:102210001CF481E0888B91C069897A898B899C89BB
:1022200020E030E04FE753E40E94C50318160CF09D
:102230007BC06D897E898F89988D20E030E04AE7E8
:1022400054E40E941903DC01CB018C879D87AE8783
:10225000BF876C857D858E859F8520E030E04AEFC5
:1022600054E40E941F02DC01CB0188879987AA876A
:10227000BB87688579858A859B8520E030E040E8CA
:102280005FE30E94250488232CF481E090E09F8383
:102290008E833FC0688579858A859B8520E03FEFE6
:1022A0004FE757E40E94C50318164CF56C857D85F1
:1022B0008E859F8520E030E040E251E40E941F02BD
:1022C000DC01CB01BC01CD010E944900DC01CB0146
:1022D0009F838E830FC088EC90E09D838C838C81DC
:1022E0009D810197F1F79D838C838E819F8101975A
:1022F0009F838E838E819F81009769F724C06885B4
:1023000079858A859B850E944900DC01CB019F83EA
:102310008E838E819F819B838A838A819B81019793
:10232000F1F79B838A830FC069897A898B899C899D
:102330000E944900DC01CB01888B888989838981CF
:102340008A95F1F78983E0960FB6F894DEBF0FBE49
:10235000CDBFCF91DF910895DF93CF9300D000D010
:10236000CDB7DEB789836A838A8181508A83898168
:10237000282F30E03C832B838B819C818130910519
:1023800031F02B813C812230310531F009C08A8146
:1023900080580E94EF0D04C08A8180540E94EF0D86
:1023A0000F900F900F900F90CF91DF910895DF93D2
:1023B000CF93CDB7DEB763970FB6F894DEBF0FBEED
:1023C000CDBF1B8A1A8A198A188A1F861B8AACC03D
:1023D00080E18A8B07C08A8960E00E94B70A8A89F7
:1023E0008F5F8A8B8A898431B0F38B89805F61E04B
:1023F0000E94B70A80E090E0A0E2B1E48B879C875E
:10240000AD87BE876B857C858D859E8520E030E01D
:102410004AEF54E40E941F02DC01CB018F839887AE
:10242000A987BA876F81788589859A8520E030E011
:1024300040E85FE30E94250488232CF481E090E0CB
:102440009E838D833FC06F81788589859A8520E042
:102450003FEF4FE757E40E94C50318164CF56B8514
:102460007C858D859E8520E030E040E251E40E942D
:102470001F02DC01CB01BC01CD010E944900DC013F
:10248000CB019E838D830FC088EC90E09C838B836F
:102490008B819C810197F1F79C838B838D819E8139
:1024A00001979E838D838D819E81009769F714C06B
:1024B0006F81788589859A850E944900DC01CB016E
:1024C0009E838D838D819E819A83898389819A8160
:1024D0000197F1F79A83898384E1898B1FC08989E9
:1024E0000E94980B888B88898130A9F48B89482FAA
:1024F00050E08989882F90E09C0124513040CA0126
:10250000880F991F880F991F820F931FFC01E351B9
:10251000FE4F80818F8789898F5F898B8989883178
:10252000F0F28B898F5F8B8B8B89843008F450CFCE
:102530008F8563960FB6F894DEBF0FBECDBFCF91E7
:10254000DF9108950F931F93DF93CF93CDB7DEB73D
:10255000C259D0400FB6F894DEBF0FBECDBF0E9467
:1025600035090E94550D80E690E061E041E00E944F
:10257000640FE3C00E94D7118093EB018091EB01BF
:102580008823C1F3809105028F5F809305028091BB
:10259000EB01863209F4D6C08091EB01882F90E0E0
:1025A000A0E0B0E020910502BC01CD0142E00E9414
:1025B000F30FFE01E757FF4F80E090E0A8E4B3E49B
:1025C00080839183A283B3838E010B571F4FFE013B
:1025D000E757FF4F608171818281938120E030E075
:1025E0004AEF54E40E941F02DC01CB01F801808312
:1025F0009183A283B383FE01EB57FF4F608171810A
:102600008281938120E030E040E85FE30E9425046E
:10261000882344F4FE01ED57FF4F81E090E0918361
:10262000808364C0FE01EB57FF4F6081718182811E
:10263000938120E03FEF4FE757E40E94C50318164F
:102640000CF043C0FE01E757FF4F6081718182812A
:10265000938120E030E040E251E40E941F02DC015F
:10266000CB018E010D571F4FBC01CD010E944900C7
:10267000DC01CB01F801918380831FC0FE01EF577D
:10268000FF4F88EC90E091838083FE01EF57FF4F6E
:10269000808191810197F1F7FE01EF57FF4F918300
:1026A0008083DE01AD57BF4FFE01ED57FF4F8081A4
:1026B0009181019711969C938E93FE01ED57FF4FE8
:1026C000808191810097D1F627C08E010D571F4F51
:1026D000FE01EB57FF4F60817181828193810E94DF
:1026E0004900DC01CB01F80191838083DE01A15810
:1026F000BF4FFE01ED57FF4F808191818D939C93D9
:10270000FE01E158FF4F808191810197F1F7FE01B1
:10271000E158FF4F91838083909105028AE262E045
:10272000492F0E94310F80910502882F90E020915F
:10273000EB01FC01EA5EFD4F20838091EB018632C4
:1027400009F018CF81E00E94EF0DFE01E558FF4F20
:1027500080E090E0A8ECB2E480839183A283B3830D
:102760008E0109581F4FFE01E558FF4F60817181AE
:102770008281938120E030E04AEF54E40E941F02FE
:10278000DC01CB01F80180839183A283B383FE0136
:10279000E958FF4F608171818281938120E030E0B0
:1027A00040E85FE30E942504882344F4FE01EB58CF
:1027B000FF4F81E090E09183808364C0FE01E9587F
:1027C000FF4F608171818281938120E03FEF4FE76D
:1027D00057E40E94C50318160CF043C0FE01E558EB
:1027E000FF4F608171818281938120E030E040E27F
:1027F00051E40E941F02DC01CB018E010B581F4FD8
:10280000BC01CD010E944900DC01CB01F80191839C
:1028100080831FC0FE01ED58FF4F88EC90E091834C
:102820008083FE01ED58FF4F808191810197F1F780
:10283000FE01ED58FF4F91838083DE01AB58BF4FFF
:10284000FE01EB58FF4F80819181019711969C9377
:102850008E93FE01EB58FF4F808191810097D1F656
:1028600027C08E010B581F4FFE01E958FF4F6081B2
:102870007181828193810E944900DC01CB01F801C2
:1028800091838083DE01AF58BF4FFE01EB58FF4FAD
:10289000808191818D939C93FE01EF58FF4F808141
:1028A00091810197F1F7FE01EF58FF4F91838083EB
:1028B0008DE690E061E041E00E94640F1092EB0130
:1028C00010920402E3C00E94D7118093EB01809123
:1028D000EB018823C1F3809104028F5F809304028F
:1028E0008091EB01863209F4D6C08091EB01882FEC
:1028F00090E0A0E0B0E020910402BC01CD0142E0F4
:102900000E94F30FFE01E359FF4F80E090E0A8E43E
:10291000B3E480839183A283B3838E0107591F4F51
:10292000FE01E359FF4F608171818281938120E034
:1029300030E04AEF54E40E941F02DC01CB01F801B1
:1029400080839183A283B383FE01E759FF4F6081A7
:1029500071818281938120E030E040E85FE30E9452
:102960002504882344F4FE01E959FF4F81E090E0FB
:102970009183808364C0FE01E759FF4F60817181BC
:102980008281938120E03FEF4FE757E40E94C50327
:1029900018160CF043C0FE01E359FF4F60817181AE
:1029A0008281938120E030E040E251E40E941F02E6
:1029B000DC01CB018E0109591F4FBC01CD010E94E2
:1029C0004900DC01CB01F801918380831FC0FE0127
:1029D000EB59FF4F88EC90E091838083FE01EB5927
:1029E000FF4F808191810197F1F7FE01EB59FF4F75
:1029F00091838083DE01A959BF4FFE01E959FF4F42
:102A000080819181019711969C938E93FE01E959E3
:102A1000FF4F808191810097D1F627C08E0109591F
:102A20001F4FFE01E759FF4F6081718182819381C1
:102A30000E944900DC01CB01F80191838083DE0113
:102A4000AD59BF4FFE01E959FF4F808191818D93B0
:102A50009C93FE01ED59FF4F808191810197F1F721
:102A6000FE01ED59FF4F91838083909104028AE229
:102A700062E0492F0E94310F80910402882F90E07C
:102A80002091EB01FC01EA5FFD4F20838091EB0177
:102A9000863209F018CF4091050286E092E026E1E7
:102AA00032E0B9010E94AD1A882309F4D1C481E053
:102AB0000E94EF0D8CE790E061E041E00E94640F1E
:102AC000FE01E057FF4F1082C7C0FE01E057FF4FE5
:102AD0008081982F985F8EE261E0492F0E94310F2C
:102AE000FE01E15AFF4F80E090E0AAEFB3E480835B
:102AF0009183A283B3838E01055A1F4FFE01E15AD1
:102B0000FF4F608171818281938120E030E04AEF44
:102B100054E40E941F02DC01CB01F8018083918301
:102B2000A283B383FE01E55AFF4F608171818281E8
:102B3000938120E030E040E85FE30E942504882391
:102B400044F4FE01E75AFF4F81E090E091838083D7
:102B500064C0FE01E55AFF4F6081718182819381DB
:102B600020E03FEF4FE757E40E94C50318160CF032
:102B700043C0FE01E15AFF4F6081718182819381E0
:102B800020E030E040E251E40E941F02DC01CB0172
:102B90008E01075A1F4FBC01CD010E944900DC0184
:102BA000CB01F801918380831FC0FE01E95AFF4FDA
:102BB00088EC90E091838083FE01E95AFF4F808189
:102BC00091810197F1F7FE01E95AFF4F91838083CC
:102BD000DE01A75ABF4FFE01E75AFF4F8081918166
:102BE000019711969C938E93FE01E75AFF4F8081C7
:102BF00091810097D1F627C08E01075A1F4FFE0121
:102C0000E55AFF4F60817181828193810E94490062
:102C1000DC01CB01F80191838083DE01AB5ABF4F09
:102C2000FE01E75AFF4F808191818D939C93FE01B5
:102C3000EB5AFF4F808191810197F1F7FE01EB5A2A
:102C4000FF4F91838083DE01A057BF4FFE01E05705
:102C5000FF4F80818F5F8C93FE01E057FF4F808193
:102C6000843008F432CFFE01EF5AFF4F80E090E04D
:102C7000A8E4B3E480839183A283B3838E01035BD2
:102C80001F4FFE01EF5AFF4F608171818281938156
:102C900020E030E04AEF54E40E941F02DC01CB0147
:102CA000F80180839183A283B383FE01E35BFF4F2E
:102CB000608171818281938120E030E040E85FE3B0
:102CC0000E942504882344F4FE01E55BFF4F81E068
:102CD00090E09183808364C0FE01E35BFF4F6081DD
:102CE00071818281938120E03FEF4FE757E40E949A
:102CF000C50318160CF043C0FE01EF5AFF4F608168
:102D000071818281938120E030E040E251E40E94B1
:102D10001F02DC01CB018E01055B1F4FBC01CD0101
:102D20000E944900DC01CB01F801918380831FC020
:102D3000FE01E75BFF4F88EC90E091838083FE010A
:102D4000E75BFF4F808191810197F1F7FE01E75B1F
:102D5000FF4F91838083DE01A55BBF4FFE01E55BE2
:102D6000FF4F80819181019711969C938E93FE0174
:102D7000E55BFF4F808191810097D1F627C08E01DE
:102D8000055B1F4FFE01E35BFF4F60817181828114
:102D900093810E944900DC01CB01F801918380837B
:102DA000DE01A95BBF4FFE01E55BFF4F8081918192
:102DB0008D939C93FE01E95BFF4F80819181019788
:102DC000F1F7FE01E95BFF4F9183808381E00E9470
:102DD000EF0D84E890E061E041E00E94640F81E043
:102DE0008093EC012FC38DE890E062E041E00E9407
:102DF000640FFE01ED5BFF4F80E090E0AAE7B4E4D2
:102E000080839183A283B3838E01015C1F4FFE01F7
:102E1000ED5BFF4F608171818281938120E030E022
:102E20004AEF54E40E941F02DC01CB01F8018083C9
:102E30009183A283B383FE01FF96608171818281B9
:102E4000938120E030E040E85FE30E94250488237E
:102E50002CF481E090E09EAF8DAF46C0FE01FF965E
:102E6000608171818281938120E03FEF4FE757E4D9
:102E70000E94C503181664F5FE01ED5BFF4F6081EB
:102E800071818281938120E030E040E251E40E9430
:102E90001F02DC01CB01BC01CD010E944900DC0115
:102EA000CB019EAF8DAF0FC088EC90E09CAF8BAF95
:102EB0008BAD9CAD0197F1F79CAF8BAF8DAD9EAD07
:102EC00001979EAF8DAF8DAD9EAD009769F716C08F
:102ED000FE01FF9660817181828193810E94490089
:102EE000DC01CB019EAF8DAF8DAD9EAD9AAF89AFAA
:102EF00089AD9AAD0197F1F79AAF89AF81E00E9451
:102F0000EF0D10920402FE01E157FF4F10820E9464
:102F1000D7118093EB0180E090E0A8E4B3E48DAB9F
:102F20009EABAFABB8AF6DA97EA98FA998AD20E0DD
:102F300030E04AEF54E40E941F02DC01CB0189AB70
:102F40009AABABABBCAB69A97AA98BA99CA920E0D1
:102F500030E040E85FE30E94250488232CF481E000
:102F600090E098AB8FA73FC069A97AA98BA99CA9CB
:102F700020E03FEF4FE757E40E94C50318164CF5D9
:102F80006DA97EA98FA998AD20E030E040E251E420
:102F90000E941F02DC01CB01BC01CD010E9449004F
:102FA000DC01CB0198AB8FA70FC088EC90E09EA707
:102FB0008DA78DA59EA50197F1F79EA78DA78FA53B
:102FC00098A9019798AB8FA78FA598A9009769F743
:102FD00014C069A97AA98BA99CA90E944900DC01A7
:102FE000CB0198AB8FA78FA598A99CA78BA78BA582
:102FF0009CA50197F1F79CA78BA78091EB018823F3
:1030000009F485CF8091EB018B3261F08091EB0167
:103010008D3241F08091EB018F3221F08091EB01F4
:103020008A32E9F4FE01E157FF4F8091EB01808382
:103030009091EB0180910402282F2F5F892F61E08E
:10304000422F0E94310F80910402FE01E257FF4F90
:103050008F5F8083FE01E357FF4F10821DC0809178
:103060000402882F90E02091EB01FC01E65DFD4F0A
:103070002083809104028F5F809304028091EB0192
:10308000882F90E0A0E0B0E020910402BC01CD01C7
:1030900041E00E94F30F3BCF0E94D7118093EB01D8
:1030A00080E090E0A8E4B3E48FA398A7A9A7BAA70B
:1030B0006FA178A589A59AA520E030E04AEF54E4F5
:1030C0000E941F02DC01CB018BA39CA3ADA3BEA376
:1030D0006BA17CA18DA19EA120E030E040E85FE3E0
:1030E0000E94250488232CF481E090E09AA389A310
:1030F0003FC06BA17CA18DA19EA120E03FEF4FE7D7
:1031000057E40E94C50318164CF56FA178A589A550
:103110009AA520E030E040E251E40E941F02DC0169
:10312000CB01BC01CD010E944900DC01CB019AA377
:1031300089A30FC088EC90E098A38F8F8F8D98A102
:103140000197F1F798A38F8F89A19AA101979AA36C
:1031500089A389A19AA1009769F714C06BA17CA1EA
:103160008DA19EA10E944900DC01CB019AA389A3F5
:1031700089A19AA19E8F8D8F8D8D9E8D0197F1F7DC
:103180009E8F8D8F8091EB01882309F485CF8091EC
:10319000EB018D3309F04CC02091EB01FE01E257A9
:1031A000FF4F8081982F9F5F822F61E0492F0E94FF
:1031B000310FFE01E157FF4F8081282F30E0CF56BD
:1031C000DF4F39832883C159D040CF56DF4F8881E4
:1031D0009981C159D0408B32910509F457C0CF561F
:1031E000DF4FE881F981C159D040EC32F1055CF440
:1031F000CF56DF4F28813981C159D0402A3231055D
:1032000009F47AC0AAC0CF56DF4F88819981C1598D
:10321000D0408D32910509F454C0CF56DF4FE8817C
:10322000F981C159D040EF32F10509F47CC095C055
:10323000FE01E357FF4F8081882F90E02091EB0142
:10324000FC01EA5DFD4F2083DE01A257BF4FFE0166
:10325000E257FF4F80818F5F8C93DE01A357BF4FF2
:10326000FE01E357FF4F80818F5F8C938091EB01CC
:10327000882F90E0A0E0B0E0FE01E257FF4FBC01D4
:10328000CD0141E020810E94F30F06CF409104025E
:103290008AE292E026E232E0FE01E357FF4FB901F5
:1032A00020810E94FB1ACC01A0E0B0E0FE01E257B1
:1032B000FF4F20812D5FBC01CD0141E00E94F30F43
:1032C0004CC0409104028AE292E026E232E0FE0124
:1032D000E357FF4FB90120810E94741BCC01A0E08D
:1032E000B0E0FE01E257FF4F20812D5FBC01CD0110
:1032F00041E00E94F30F31C0409104028AE292E063
:1033000026E232E0FE01E357FF4FB90120810E941F
:10331000EF1BCC01A0E0B0E0BC01CD0141E023E017
:103320000E94F30F1AC0409104028AE292E026E262
:1033300032E0FE01E357FF4FB90120810E946E1C6D
:10334000CC01A0E0B0E0FE01E257FF4F20812D5FED
:10335000BC01CD0141E00E94F30F80E090E8ABE3B7
:10336000B5E4898F9A8FAB8FBC8F698D7A8D8B8DE9
:103370009C8D20E030E04AEF54E40E941F02DC0103
:10338000CB018D8B9E8BAF8BB88F6D897E898F899A
:10339000988D20E030E040E85FE30E942504882318
:1033A0002CF481E090E09C8B8B8B3FC06D897E89F3
:1033B0008F89988D20E03FEF4FE757E40E94C503C7
:1033C00018164CF5698D7A8D8B8D9C8D20E030E040
:1033D00040E251E40E941F02DC01CB01BC01CD019F
:1033E0000E944900DC01CB019C8B8B8B0FC088ECC9
:1033F00090E09A8B898B89899A890197F1F79A8B4A
:10340000898B8B899C8901979C8B8B8B8B899C8961
:10341000009769F714C06D897E898F89988D0E9405
:103420004900DC01CB019C8B8B8B8B899C89988B11
:103430008F878F8598890197F1F7988B8F8781E027
:103440000E94EF0D8091EC01813009F4CCCC7AC957
:1034500081E00E94EF0D8BE990E061E041E00E9485
:10346000640F80E090E0AAEFB4E48B879C87AD877F
:10347000BE876B857C858D859E8520E030E04AEF98
:1034800054E40E941F02DC01CB018F839887A98737
:10349000BA876F81788589859A8520E030E040E899
:1034A0005FE30E94250488232CF481E090E09E8352
:1034B0008D833FC06F81788589859A8520E03FEFB5
:1034C0004FE757E40E94C50318164CF56B857C85C1
:1034D0008D859E8520E030E040E251E40E941F028D
:1034E000DC01CB01BC01CD010E944900DC01CB0114
:1034F0009E838D830FC088EC90E09C838B838B81AF
:103500009C810197F1F79C838B838D819E8101972C
:103510009E838D838D819E81009769F713C96F818A
:10352000788589859A850E944900DC01CB019E83BC
:103530008D838D819E819A83898389819A81019768
:10354000F1F79A838983FEC8DF93CF93CDB7DEB7B7
:103550001092EC01CF91DF910895DF93CF93CDB717
:10356000DEB728970FB6F894DEBF0FBECDBF9C83A1
:103570008B837E836D834F831A8219821AC089815F
:10358000282F30E08B819C81FC01E20FF31F4081EA
:103590008981282F30E08D819E81FC01E20FF31F8D
:1035A0008081481719F48A818F5F8A8389818F5FB0
:1035B00089838981282F30E08F81882F90E00197BF
:1035C00028173907E4F28A81282F30E08F81882F6D
:1035D00090E001972817390719F481E0888701C026
:1035E0001886888528960FB6F894DEBF0FBECDBF2B
:1035F000CF91DF910895DF93CF93CDB7DEB72C97AE
:103600000FB6F894DEBF0FBECDBF98878F837A8741
:1036100069874B872C87EF81F8858081882F90E020
:103620009E838D83E985FA858081882F90E09C8335
:103630008B8381E08A831FC08D819E819C01220F34
:10364000331FC901880F991F880F991FA901480FBF
:10365000591F8A81282F30E08F819885FC01E20F65
:10366000F31F8081882F90E0840F951F9E838D83A8
:103670008A818F5F8A839A818B859817E8F281E02F
:1036800089831FC08B819C819C01220F331FC9013C
:10369000880F991F880F991FA901480F591F898109
:1036A000282F30E089859A85FC01E20FF31F808185
:1036B000882F90E0840F951F9C838B8389818F5F77
:1036C000898399818C859817E8F22D813E818B81C1
:1036D0009C81820F931F2C960FB6F894DEBF0FBE0D
:1036E000CDBFCF91DF910895DF93CF93CDB7DEB7F4
:1036F0002C970FB6F894DEBF0FBECDBF98878F838F
:103700007A8769874B872C87EF81F8858081882F9E
:1037100090E09E838D83E985FA858081882F90E0F3
:103720009C838B8381E08A831FC08D819E819C0155
:10373000220F331FC901880F991F880F991FA901F4
:10374000480F591F8A81282F30E08F819885FC010E
:10375000E20FF31F8081882F90E0840F951F9E83D6
:103760008D838A818F5F8A839A818B859817E8F28F
:1037700081E089831FC08B819C819C01220F331FB4
:10378000C901880F991F880F991FA901480F591F58
:103790008981282F30E089859A85FC01E20FF31F8B
:1037A0008081882F90E0840F951F9C838B83898173
:1037B0008F5F898399818C859817E8F22D813E81EE
:1037C0008B819C81A901481B590BCA012C960FB60D
:1037D000F894DEBF0FBECDBFCF91DF910895DF9388
:1037E000CF93CDB7DEB72C970FB6F894DEBF0FBEE0
:1037F000CDBF98878F837A8769874B872C87EF8126
:10380000F8858081882F90E09E838D83E985FA85F5
:103810008081882F90E09C838B8381E08A831FC006
:103820008D819E819C01220F331FC901880F991F32
:10383000880F991FA901480F591F8A81282F30E04E
:103840008F819885FC01E20FF31F8081882F90E023
:10385000840F951F9E838D838A818F5F8A839A81CF
:103860008B859817E8F281E089831FC08B819C814A
:103870009C01220F331FC901880F991F880F991FC0
:10388000A901480F591F8981282F30E089859A8521
:10389000FC01E20FF31F8081882F90E0840F951FB9
:1038A0009C838B8389818F5F898399818C8598170D
:1038B000E8F22D813E818B819C81AC01249FC00167
:1038C000259F900D349F900D11242C960FB6F894DF
:1038D000DEBF0FBECDBFCF91DF910895DF93CF93B1
:1038E000CDB7DEB72C970FB6F894DEBF0FBECDBFB5
:1038F00098878F837A8769874B872C87EF81F88534
:103900008081882F90E09E838D83E985FA85808170
:10391000882F90E09C838B8381E08A831FC08D81F8
:103920009E819C01220F331FC901880F991F880FA8
:10393000991FA901480F591F8A81282F30E08F81D4
:103940009885FC01E20FF31F8081882F90E0840F9F
:10395000951F9E838D838A818F5F8A839A818B8551
:103960009817E8F281E089831FC08B819C819C01BC
:10397000220F331FC901880F991F880F991FA901B2
:10398000480F591F8981282F30E089859A85FC01CD
:10399000E20FF31F8081882F90E0840F951F9C8396
:1039A0008B8389818F5F898399818C859817E8F251
:1039B0008D819E812B813C81B9010E94E91CCB0144
:1039C0002C960FB6F894DEBF0FBECDBFCF91DF911E
:1039D0000895AA1BBB1B51E107C0AA1FBB1FA61756
:1039E000B70710F0A61BB70B881F991F5A95A9F7A8
:1039F00080959095BC01CD010895A1E21A2EAA1BD5
:103A0000BB1BFD010DC0AA1FBB1FEE1FFF1FA2178E
:103A1000B307E407F50720F0A21BB30BE40BF50B8B
:103A2000661F771F881F991F1A9469F76095709514
:103A3000809590959B01AC01BD01CF0108952F9217
:103A40003F924F925F926F927F928F929F92AF922E
:103A5000BF92CF92DF92EF92FF920F931F93CF937B
:103A6000DF93CDB7DEB7CA1BDB0B0FB6F894DEBF12
:103A70000FBECDBF09942A88398848885F846E8438
:103A80007D848C849B84AA84B984C884DF80EE8082
:103A9000FD800C811B81AA81B981CE0FD11D0FB68B
:103AA000F894DEBF0FBECDBFED010895F894FFCFAF
:103AB0005365742070617373776F72640063686517
:103AC000636B2070617373776F7264004C6F616415
:103AD000696E670057656C65636F6D650063616C47
:103AE000632069732072656164790057726F6E6735
:103AF0002070617373776F72640000000000000033
:103B0000000000010202030303030404040404048C
:103B10000404050505050505050505050505050557
:103B20000505060606060606060606060606060637
:103B30000606060606060606060606060606060625
:103B40000606070707070707070707070707070707
:103B500007070707070707070707070707070707F5
:103B600007070707070707070707070707070707E5
:103B700007070707070707070707070707070707D5
:103B800007070808080808080808080808080808B7
:103B900008080808080808080808080808080808A5
:103BA0000808080808080808080808080808080895
:103BB0000808080808080808080808080808080885
:103BC0000808080808080808080808080808080875
:103BD0000808080808080808080808080808080865
:103BE0000808080808080808080808080808080855
:103BF0000808080808080808080808080808080845
:103C00000808030701000401000501000601000780
:103C10000101000101010101020102000102010193
:103C20000202010203010204000205000206000272
:103C30000700000000000000000000FF0107080965
:0E3C40002F0405062A0102032D26303D2B001D
:00000001FF
